:10000000681400202D2E000065810000192E0000CC
:10001000192E0000192E0000192E0000192E0000C4
:10002000000000000000000000000000D92F0000C8
:10003000192E000000000000992F0000192E00006A
:1000400041310000413100004131000041310000E8
:1000500041310000413100004131000041310000D8
:1000600041310000413100004131000041310000C8
:1000700041310000413100004131000041310000B8
:1004800000239C4610B4421E12F8014F0CF10100EB
:10049000013334B1022841F82C3001DD10BC704723
:1004A0008446032BF0D1604610BC70472DE9F04F15
:1004B00016464FF07E528FB0DDE9184BCBF8002086
:1004C0004FF080421D46CBF80420804640228946EA
:1004D0000BF10800194609F050F92A6C0021CBF8FD
:1004E00048206A6CCBF84C20934ACBF85020AA6C79
:1004F000CBF85420EA6CCBF858202A6DCBF85C205E
:100500006A6DCBF86020AA6DCBF86420EA6DCBF859
:1005100068202A6ECBF86C206A6ECBF87020AA6E29
:100520008BF894100021CBF87420844ACBF8781013
:100530001268CBF87C10CBF88010CBF88420CBF875
:100540008820CBF88C20CBF89020CBF89810CBF8F3
:100550009C20CBF8A020CBF8A420CBF8A820D4F87E
:100560002453D4F828732846394601F0CFFA0028DE
:1005700040F0CF813946284601F0B4FA002840F017
:10058000D9803946284601F0CBFAAA4600B13D464B
:100590003846D4F82C73394601F0B8FA002840F0F8
:1005A000BD813946504601F09DFA30B9394628469A
:1005B00001F0B6FA00B13D4657464FF0030A29460E
:1005C000304601F08FFA002840F0778139463046F6
:1005D00001F0A6FA002840F09781CBF8AC7004F542
:1005E0004977CBF8B05038468BF8B4A000F01AFA2F
:1005F0000146304609F064F90546384600F040FAF5
:100600000146284609F038F90546D4F8240329465E
:1006100001F05EFA0246003A18BF01222946D4F8DA
:1006200028038DF81C2001F053FA0246003A18BF47
:1006300001222946D4F82C038DF81D2001F048FA38
:100640000246003A18BF01220BA907A88DF81E2008
:10065000FFF716FF002800F032810DDD0BAA08AD70
:1006600002EB800052F8043B03F25D5354F8233050
:10067000824245F8043BF5D1089F4846394601F0CF
:1006800093F8414600F088FF2D4A0546CBF8B82084
:10069000D4F83083D4F83403414600F07BFF02469F
:1006A000D4F8149529464846019201F025FA2946C6
:1006B000002847D1404601F015FA002840F0088193
:1006C0002946404601F022FA002800F01F8100234D
:1006D000029304F5805ADAF8A811304601F064F864
:1006E000DAF890338146DAF8AC113046039301F022
:1006F0005BF8DAF8941300F04FFF494682460398FE
:1007000000F04AFF0146504600F044FF4146824651
:10071000284600F03FFF0146504601F045F8019998
:1007200001F0F6F8039900F037FF494600F034FF76
:10073000814641E0BA462BE70000A0407C01002042
:1007400000004040404601F0CDF9002840F0D38041
:100750000023029304F5805ADAF88C13304601F036
:1007600023F8DAF8742503901146059200F014FF7F
:100770000346DAF888133046049301F015F8DAF8E6
:10078000701500F009FF0146049800F003FF84464D
:1007900049462846E14600F0FDFE0146484601F084
:1007A00003F8019901F0B4F8059A114600F0F4FE3F
:1007B000039900F0F1FE8146029B002B5DD041467B
:1007C000284600F0E7FEDDF80480414601F0A0F87D
:1007D00007F06CF98146D4F83013284600F0DAFEB1
:1007E000414601F095F8494600F0D4FE80464FF0AE
:1007F0007E50414600F0CEFE4FF07E518246484684
:1008000000F0CAFE01F096F902464FF080414846DA
:1008100004EB820900F0C0FE01F08CF904EB8003C8
:1008200003F58053D3F8A4114046019300F0BCFFB8
:1008300009F580590446D9F8A411504600F0B4FFD8
:100840000146204600F0A8FE314600F0ADFFD9F881
:100850008C130446504600F0A7FF019B0646D3F8D0
:100860008C13404600F0A0FF0146304600F094FE95
:100870000146204600F090FE8146284600F02EF901
:1008800008B14FF000090022CBF8C020CBF8C420FB
:10089000CBF8C8204FF081421A9BCBF8CC90CBF814
:1008A000D070CBF8D470CBF8D870CBF8DC70CBF824
:1008B000BC201D600FB0BDE8F08F2E468DE604F51C
:1008C000AB5138462A46183100F02CF80746D4E6DA
:1008D0002946484601F024F90246131E18BF012399
:1008E00029464046029301F0F3F800287FF4F1AE68
:1008F0004FF0000960E72946484601F011F9031E50
:1009000018BF0123029325E73E4666E64FF0000933
:10091000B3E72F462E464FF0010A5EE657464FF0EA
:10092000020A4CE62DE9F04F05460E4691468B68CB
:1009300083B00768D1F800A0D0F808B00193041F75
:1009400000F1080354F8040F009300F0C7F8C8B989
:10095000009BA342F6D16C68D5F800802046414642
:1009600001F0C0F828B1C3463368AF68D6F808A0D4
:1009700001934846D6F8048000F0B0F830B1284B17
:10098000D3F80080404603B0BDE8F08F39462046DA
:1009900000F000FE06465146404600F0FBFD3146A1
:1009A00000F0B6FF39460546584600F0F3FD034611
:1009B00041460198984600F0EDFD03462146584611
:1009C0001C4600F0E7FD0146204600F0A1FF294645
:1009D00000F0E0FD414600F09BFF034639464846E3
:1009E0001F4600F0D7FD39460446304600F0DCFED5
:1009F0000146284600F0CEFD21460546384600F067
:100A0000D3FE0146284600F0C7FD214600F0CCFE8B
:100A1000514600F0C1FD8046404603B0BDE8F08F6E
:100A20007C010020F8B50446006800F057F850B18A
:100A3000606800F053F800B3A06800F04FF8C8B940
:100A4000A5682846F8BD02262568043C54F826709F
:100A50002946384601F064F850B9022E06D1E46800
:100A60002846214601F03EF800B125462846F8BD4B
:100A70003D46F2E725682846F8BD03266568E4E7A9
:100A8000F8B50446006800F029F850B1606800F03D
:100A900025F800B3A06800F021F8C8B9A568284679
:100AA000F8BD02262568043C54F8267029463846CD
:100AB00001F018F850B9022E06D1E4682846214604
:100AC00001F02EF800B125462846F8BD3D46F2E774
:100AD00025682846F8BD03266568E4E708B500F0F8
:100AE000B5F902460B4600F0A3FC003818BF012000
:100AF00008BD00BF00283BD030B5C3680446A1B094
:100B0000002B32D0E0220D461B48002108F042FEA7
:100B10006C221A4905A808F030FE194BE2681A60E9
:100B200023698BB1196817915968189199681991BF
:100B3000D9681A9119691B9159691E9199691F9178
:100B4000D9691C911B6A1D9304A902910A4900925C
:100B5000A26801916168206805ABFFF7A7FC0DB1A1
:100B6000049B2B60002021B030BD6FF01500FAE728
:100B70006FF01500704700BF24060020F8BE00008B
:100B80002006002081F0004102E000BF83F0004316
:100B900030B54FEA41044FEA430594EA050F08BF18
:100BA00090EA020F1FBF54EA000C55EA020C7FEADC
:100BB000645C7FEA655C00F0E2804FEA5454D4EB59
:100BC0005555B8BF6D420CDD2C4480EA020281EA23
:100BD000030382EA000083EA010180EA020281EA5B
:100BE0000303362D88BF30BD11F0004F4FEA0131AD
:100BF0004FF4801C4CEA113102D0404261EB4101BC
:100C000013F0004F4FEA03334CEA133302D0524241
:100C100063EB430394EA050F00F0A780A4F10104FD
:100C2000D5F1200E0DDB02FA0EFC22FA05F2801837
:100C300041F1000103FA0EF2801843FA05F359411D
:100C40000EE0A5F120050EF1200E012A03FA0EFC9C
:100C500028BF4CF0020C43FA05F3C01851EBE371C6
:100C600001F0004507D54FF0000EDCF1000C7EEBE3
:100C700000006EEB0101B1F5801F1BD3B1F5001F21
:100C80000CD349085FEA30004FEA3C0C04F1010440
:100C90004FEA445212F5800F80F09A80BCF1004F69
:100CA00008BF5FEA500C50F1000041EB045141EAEB
:100CB000050130BD5FEA4C0C404141EB0101013CB4
:100CC00028BFB1F5801FE9D291F0000F04BF0146A3
:100CD0000020B1FA81F308BF2033A3F10B03B3F175
:100CE00020020CDA0C3208DD02F1140CC2F10C0205
:100CF00001FA0CF021FA02F10CE002F11402D8BF63
:100D0000C2F1200C01FA02F120FA0CFCDCBF41EA2E
:100D10000C019040E41AA2BF01EB0451294330BDFD
:100D20006FEA04041F3C1CDA0C340EDC04F11404DA
:100D3000C4F1200220FA04F001FA02F340EA0300B1
:100D400021FA04F345EA030130BDC4F10C04C4F1F7
:100D5000200220FA02F001FA04F340EA03002946D7
:100D600030BD21FA04F0294630BD94F0000F83F421
:100D7000801306BF81F480110134013D4EE77FEA04
:100D8000645C18BF7FEA655C29D094EA050F08BF50
:100D900090EA020F05D054EA000C04BF1946104631
:100DA00030BD91EA030F1EBF0021002030BD5FEA75
:100DB000545C05D14000494128BF41F0004130BD9D
:100DC00014F580043CBF01F5801130BD01F00045F1
:100DD00045F0FE4141F470014FF0000030BD7FEA64
:100DE000645C1ABF194610467FEA655C1CBF0B465F
:100DF000024650EA013406BF52EA033591EA030F76
:100E000041F4002130BD00BF90F0000F04BF00216D
:100E1000704730B54FF4806404F132044FF00005A0
:100E20004FF0000150E700BF90F0000F04BF002119
:100E3000704730B54FF4806404F1320410F000457F
:100E400048BF40424FF000013EE700BF42004FEA7A
:100E5000E2014FEA31014FEA02701FBF12F07F43F7
:100E600093F07F4F81F06051704732F07F4208BFAE
:100E7000704793F07F4F04BF41F40021704730B5B5
:100E80004FF4607401F0004521F000411CE700BF01
:100E900050EA010208BF704730B54FF000050AE084
:100EA00050EA010208BF704730B511F0004502D585
:100EB000404261EB41014FF4806404F132045FEA87
:100EC000915C3FF4D8AE4FF003025FEADC0C18BF30
:100ED00003325FEADC0C18BF033202EBDC02C2F122
:100EE000200300FA03FC20FA02F001FA03FE40EAB4
:100EF0000E0021FA02F11444BDE600BF70B54FF0B8
:100F0000FF0C4CF4E06C1CEA11541DBF1CEA135595
:100F100094EA0C0F95EA0C0F00F0DEF82C4481EAFD
:100F2000030621EA4C5123EA4C5350EA013518BF1D
:100F300052EA033541F4801143F4801338D0A0FB0A
:100F400002CE4FF00005E1FB02E506F00042E0FBB7
:100F500003E54FF00006E1FB03569CF0000F18BFBD
:100F60004EF0010EA4F1FF04B6F5007F64F5407465
:100F700004D25FEA4E0E6D4146EB060642EAC621F8
:100F800041EA55514FEAC52040EA5E504FEACE2E65
:100F9000B4F1FD0C88BFBCF5E06F1ED8BEF1004F68
:100FA00008BF5FEA500E50F1000041EB045170BDE4
:100FB00006F0004646EA010140EA020081EA030128
:100FC000B4EB5C04C2BFD4EB0C0541EA045170BD24
:100FD00041F480114FF0000E013C00F3AB8014F19E
:100FE000360FDEBF002001F0004170BDC4F10004E7
:100FF000203C35DA0C341BDC04F11404C4F1200568
:1010000000FA05F320FA04F001FA05F240EA0200C2
:1010100001F0004221F0004110EBD37021FA04F6F8
:1010200042EB06015EEA430E08BF20EAD37070BDB2
:10103000C4F10C04C4F1200500FA04F320FA05F011
:1010400001FA04F240EA020001F0004110EBD37013
:1010500041F100015EEA430E08BF20EAD37070BD83
:10106000C4F1200500FA05F24EEA020E20FA04F35C
:1010700001FA05F243EA020321FA04F001F000410B
:1010800021FA04F220EA020000EBD3705EEA430E7C
:1010900008BF20EAD37070BD94F0000F0FD101F0AB
:1010A0000046400041EB010111F4801F08BF013CE4
:1010B000F7D041EA060195F0000F18BF704703F022
:1010C0000046520043EB030313F4801F08BF013DA9
:1010D000F7D043EA0603704794EA0C0F0CEA135565
:1010E00018BF95EA0C0F0CD050EA410618BF52EA1F
:1010F0004306D1D181EA030101F000414FF0000025
:1011000070BD50EA410606BF1046194652EA430632
:1011100019D094EA0C0F02D150EA013613D195EAA6
:101120000C0F05D152EA03361CBF104619460AD1EE
:1011300081EA030101F0004141F0FE4141F47001F8
:101140004FF0000070BD41F0FE4141F4780170BDE8
:1011500070B54FF0FF0C4CF4E06C1CEA11541DBF4D
:101160001CEA135594EA0C0F95EA0C0F00F0A7F84F
:10117000A4EB050481EA030E52EA03354FEA01317C
:1011800000F088804FEA03334FF0805545EA13138F
:1011900043EA12634FEA022245EA111545EA106557
:1011A0004FEA00260EF000419D4208BF964244F1EE
:1011B000FD0404F5407402D25B084FEA3202B61A0D
:1011C00065EB03055B084FEA32024FF480104FF4E1
:1011D000002CB6EB020E75EB030E22BFB61A754655
:1011E00040EA0C005B084FEA3202B6EB020E75EBE8
:1011F000030E22BFB61A754640EA5C005B084FEA50
:101200003202B6EB020E75EB030E22BFB61A75461C
:1012100040EA9C005B084FEA3202B6EB020E75EB27
:10122000030E22BFB61A754640EADC0055EA060EE8
:1012300018D04FEA051545EA16754FEA06164FEA2B
:10124000C30343EA52734FEAC2025FEA1C1CC0D1D7
:1012500011F4801F0BD141EA00014FF000004FF064
:10126000004CB6E711F4801F04BF01430020B4F125
:10127000FD0C88BFBCF5E06F3FF6AFAEB5EB030CDD
:1012800004BFB6EB020C5FEA500C50F1000041EBDA
:10129000045170BD0EF0004E4EEA113114EB5C04A7
:1012A000C2BFD4EB0C0541EA045170BD41F480117A
:1012B0004FF0000E013C90E645EA060E8DE60CEA82
:1012C000135594EA0C0F08BF95EA0C0F3FF43BAF9F
:1012D00094EA0C0F0AD150EA01347FF434AF95EA56
:1012E0000C0F7FF425AF104619462CE795EA0C0F3A
:1012F00006D152EA03353FF4FDAE1046194622E707
:1013000050EA410618BF52EA43067FF4C5AE50EAE0
:1013100041047FF40DAF52EA43057FF4EBAE12E7D0
:101320004FF0FF3C06E000BF4FF0010C02E000BFB1
:101330004FF0010C4DF804CD4FEA410C7FEA6C5C94
:101340004FEA430C18BF7FEA6C5C1BD001B050EA37
:10135000410C0CBF52EA430C91EA030F02BF90EA22
:10136000020F0020704710F1000F91EA030F58BFE1
:10137000994208BF90422CBFD8176FEAE37040F043
:10138000010070474FEA410C7FEA6C5C02D150EAE1
:10139000013C07D14FEA430C7FEA6C5CD6D152EA9C
:1013A000033CD3D05DF8040B704700BF8446104661
:1013B00062468C461946634600E000BF01B5FFF760
:1013C000B7FF002848BF10F1000F01BD4DF808ED30
:1013D000FFF7F4FF0CBF012000205DF808FB00BF01
:1013E0004DF808EDFFF7EAFF34BF012000205DF85B
:1013F00008FB00BF4DF808EDFFF7E0FF94BF0120A8
:1014000000205DF808FB00BF4DF808EDFFF7CEFFA8
:1014100094BF012000205DF808FB00BF4DF808EDE7
:10142000FFF7C4FF34BF012000205DF808FB00BFB8
:101430004FEA410C7FEA6C5C02D150EA013C0AD1D0
:101440004FEA430C7FEA6C5C02D152EA033C02D1C2
:101450004FF0000070474FF0010070474FEA410223
:1014600012F5001215D211D56FF47873B3EB6252F6
:1014700012D94FEAC12343F0004343EA505311F01D
:10148000004F23FA02F018BF404270474FF00000AF
:10149000704750EA013005D111F0004008BF6FF0ED
:1014A000004070474FF00000704700BF4A0011D263
:1014B00012F5001211D20DD56FF47873B3EB6252AE
:1014C0000ED44FEAC12343F0004343EA505323FABA
:1014D00002F070474FF00000704750EA013002D12F
:1014E0004FF0FF3070474FF0000070474FEA410265
:1014F000B2F1E04324BFB3F5001CDCF1FE5C0DD972
:1015000001F0004C4FEAC0024CEA5070B2F1004FBB
:1015100040EB830008BF20F00100704711F0804FBE
:1015200021D113F13872BCBF01F00040704741F483
:1015300080114FEA5252C2F11802C2F1200C10FA87
:101540000CF320FA02F018BF40F001004FEAC1236B
:101550004FEAD32303FA0CFC40EA0C0023FA02F30F
:101560004FEA4303CCE77FEA625307D150EA0133E5
:101570001EBF4FF0FE4040F44000704701F00040B5
:1015800040F0FE4040F40000704700BF80F0004093
:1015900002E000BF81F0004142001FBF5FEA41034B
:1015A00092EA030F7FEA226C7FEA236C6AD04FEA4B
:1015B0001262D2EB1363C1BFD21841404840414090
:1015C000B8BF5B42192B88BF704710F0004F40F442
:1015D000000020F07F4018BF404211F0004F41F45E
:1015E000000121F07F4118BF494292EA030F3FD02A
:1015F000A2F1010241FA03FC10EB0C00C3F120033D
:1016000001FA03F100F0004302D5494260EB4000CB
:10161000B0F5000F13D3B0F1807F06D340084FEA36
:10162000310102F10102FE2A51D2B1F1004F40EB2B
:10163000C25008BF20F0010040EA03007047490093
:1016400040EB0000013A28BFB0F5000FEDD2B0FA30
:1016500080FCACF1080CB2EB0C0200FA0CF0AABF53
:1016600000EBC25052421843BCBFD04018437047F1
:1016700092F0000F81F4000106BF80F400000132F7
:10168000013BB5E74FEA41037FEA226C18BF7FEACE
:10169000236C21D092EA030F04D092F0000F08BF10
:1016A0000846704790EA010F1CBF0020704712F0F7
:1016B0007F4F04D1400028BF40F00040704712F136
:1016C00000723CBF00F50000704700F0004343F09B
:1016D000FE4040F4000070477FEA226216BF0846D1
:1016E0007FEA23630146420206BF5FEA412390EA94
:1016F000010F40F4800070474FF0000304E000BF8A
:1017000010F0004348BF40425FEA000C08BF70473A
:1017100043F0964301464FF000001CE050EA0102FE
:1017200008BF70474FF000030AE000BF50EA010213
:1017300008BF704711F0004302D5404261EB410100
:101740005FEA010C02BF84460146002043F0B64325
:1017500008BFA3F18053A3F50003BCFA8CF2083A4A
:10176000A3EBC25310DB01FA02FC634400FA02FC53
:10177000C2F12002BCF1004F20FA02F243EB02005A
:1017800008BF20F00100704702F1200201FA02FCBC
:10179000C2F1200250EA4C0021FA02F243EB0200AF
:1017A00008BF20EADC7070474FF0FF0C1CEAD052F3
:1017B0001EBF1CEAD15392EA0C0F93EA0C0F6FD0B4
:1017C0001A4480EA010C400218BF5FEA41211ED092
:1017D0004FF0006343EA501043EA5111A0FB01317E
:1017E0000CF00040B1F5000F3EBF490041EAD37153
:1017F0005B0040EA010062F17F02FD2A1DD8B3F1CF
:10180000004F40EBC25008BF20F00100704790F03D
:10181000000F0CF0004C08BF49024CEA502040EA8F
:1018200051207F3AC2BFD2F1FF0340EAC250704755
:1018300040F400004FF00003013A5DDC12F1190F93
:10184000DCBF00F000407047C2F10002410021FA05
:1018500002F1C2F1200200FA02FC5FEA310040F11D
:10186000000053EA4C0308BF20EADC70704792F096
:10187000000F00F0004C02BF400010F4000F013ACE
:10188000F9D040EA0C0093F0000F01F0004C02BFC9
:10189000490011F4000F013BF9D041EA0C018FE738
:1018A0000CEAD15392EA0C0F18BF93EA0C0F0AD03E
:1018B00030F0004C18BF31F0004CD8D180EA010064
:1018C00000F00040704790F0000F17BF90F0004FFD
:1018D000084691F0000F91F0004F14D092EA0C0FDF
:1018E00001D142020FD193EA0C0F03D14B0218BF72
:1018F000084608D180EA010000F0004040F0FE40B8
:1019000040F40000704740F0FE4040F44000704753
:101910004FF0FF0C1CEAD0521EBF1CEAD15392EAD2
:101920000C0F93EA0C0F69D0A2EB030280EA010CC2
:1019300049024FEA402037D04FF0805343EA11115B
:1019400043EA10130CF000408B4238BF5B0042F1B9
:101950007D024FF4000C8B4224BF5B1A40EA0C005E
:10196000B3EB510F24BFA3EB510340EA5C00B3EB90
:10197000910F24BFA3EB910340EA9C00B3EBD10F7E
:1019800024BFA3EBD10340EADC001B0118BF5FEAD0
:101990001C1CE0D1FD2A3FF650AF8B4240EBC250F9
:1019A00008BF20F0010070470CF0004C4CEA5020BA
:1019B0007F32C2BFD2F1FF0340EAC250704740F409
:1019C00000004FF00003013A37E792F0000F00F0FB
:1019D000004C02BF400010F4000F013AF9D040EA79
:1019E0000C0093F0000F01F0004C02BF490011F40D
:1019F000000F013BF9D041EA0C0195E70CEAD15305
:101A000092EA0C0F08D142027FF47DAF93EA0C0FEB
:101A10007FF470AF084676E793EA0C0F04D14B02CF
:101A20003FF44CAF08466EE730F0004C18BF31F081
:101A3000004CCAD130F000427FF45CAF31F000437B
:101A40007FF43CAF5FE700BF4FF0FF3C06E000BF14
:101A50004FF0010C02E000BF4FF0010C4DF804CD37
:101A60004FEA40024FEA41037FEA226C18BF7FEA47
:101A7000236C11D001B052EA530C18BF90EA010F49
:101A800058BFB2EB030088BFC81738BF6FEAE170D8
:101A900018BF40F0010070477FEA226C02D15FEA74
:101AA000402C05D17FEA236CE4D15FEA412CE1D0E0
:101AB0005DF8040B704700BF844608466146FFE7A7
:101AC0000FB5FFF7C9FF002848BF10F1000F0FBD89
:101AD0004DF808EDFFF7F4FF0CBF012000205DF882
:101AE00008FB00BF4DF808EDFFF7EAFF34BF012007
:101AF00000205DF808FB00BF4DF808EDFFF7E0FFA0
:101B000094BF012000205DF808FB00BF4DF808EDF0
:101B1000FFF7D2FF94BF012000205DF808FB00BF53
:101B20004DF808EDFFF7C8FF34BF012000205DF835
:101B300008FB00BF4FEA4002B2F1FE4F0FD34FF057
:101B40009E03B3EB12620DD94FEA002343F000432A
:101B500010F0004F23FA02F018BF404270474FF0D8
:101B60000000704712F1610F01D1420205D110F05F
:101B7000004008BF6FF0004070474FF00000704712
:101B800053B94AB9002908BF00281CBF4FF0FF31E4
:101B90004FF0FF3000F00CB8ADF1080C6DE904CE49
:101BA00000F008F8DDF804E0DDE9022304B0704736
:101BB000704700BF2DE9F04786468C460846089ED0
:101BC000154674461946002B40F0C1808542B2FA92
:101BD00082F245D94AB1C2F1200300FA02FC9540D5
:101BE00094402EFA03F343EA0C0C4FEA154EA8B2C8
:101BF000230CBCFBFEF80EFB18CC08FB00F943EAF3
:101C00000C43994528D9EB1808F1FF3704D29945C0
:101C100002D9A8F102072B44A3EB0903A4B2B3FB3A
:101C2000FEFC0EFB1C330CFB00F044EA0344A04214
:101C300014D92C190CF1FF3304D2A04202D9ACF113
:101C400002032C44241A43EA07401EB1D440002367
:101C500034607360BDE8F0874746DDE76346F1E72F
:101C600092BB431B01214FEA154EAFB2200CB3FBD0
:101C7000FEFC0EFB1C330CFB07F840EA03439845BF
:101C800061D9EB180CF1FF3004D2984502D9ACF1C0
:101C900002002B44A3EB0803A4B2B3FBFEFC0EFB33
:101CA0001C330CFB07F744EA0344A7424DD92C1917
:101CB0000CF1FF3304D2A74202D9ACF102032C4449
:101CC000E41B43EA0040C0E7C2F120039540944082
:101CD00020FA03F12EFA03F34FEA154E9040AFB20B
:101CE0000343B1FBFEFC0EFB1C10190C0CFB07F8A8
:101CF00041EA0041884522D969180CF1FF3004D22D
:101D0000884502D9ACF102002944A1EB08019BB23D
:101D1000B1FBFEFC0EFB1C110CFB07F743EA014371
:101D20009F420ED9EB180CF1FF3104D29F4202D929
:101D3000ACF102012B44DB1B41EA004193E7604612
:101D4000E3E76146F7E76046A4E76346B8E7834206
:101D500006D916B9002108467CE7C6E900E0F9E794
:101D6000B3FA83F78FB9834201D3724508D8BEEB2B
:101D7000020460EB030301209C461EB9002169E7C1
:101D80003846FAE7C6E9004CF8E7C7F1200CBB403B
:101D90000EFA07F522FA0CF42EFA0CF1BA401C43A5
:101DA00020FA0CF3B8404FEA144901431FFA84FEAD
:101DB000B3FBF9F809FB18300B0C08FB0EFA43EAE9
:101DC00000439A4540D9E31808F1FF3004D29A4500
:101DD00002D9A8F102002344A3EB0A0389B2B3FBA2
:101DE000F9F809FB183308FB0EFE41EA03418E4562
:101DF0002CD9611808F1FF3304D28E4502D9A8F11D
:101E00000203214443EA0040A1EB0E01A0FB02982B
:101E10004145CE46434602D306D14D4504D2013852
:101E2000B9EB020E68EB0403002EA7D0B5EB0E024F
:101E300061EB030101FA0CFC22FA07F3F9404CEACA
:101E40000303C6E9003199E74046C5E74346D9E7B1
:101E50002DE9FF4721F00042AF4F04460D46BA423C
:101E60004FEAD17632D9AD4FBA4216D894A3D3E90E
:101E70000023FFF7D3FA074610BB2046294692A35A
:101E8000D3E90023FFF7ACFA002800F09E80384623
:101E900004B0BDE8F04707F0E7BCC1F31303024606
:101EA000034305D00B46FEF773FE04460D4602E0E1
:101EB000002E40F0FF802046294604B0BDE8F087A0
:101EC000002004B0BDE8F04705F0B4BE944B9A4240
:101ED00040F2A780934B9A4277D8934BF400C6F117
:101EE000010A03EBC603AAEB060AD3E90023FEF7B7
:101EF0004DFE8E4B804689462344D3E90034CDE91C
:101F00000034DDE9002340464946FEF73FFE044623
:101F10000D4622462B4620462946FEF7EFFF064691
:101F20000F466BA3D3E90023FEF7E8FF6AA3D3E9CA
:101F30000023FEF72BFE32463B46FEF7DFFF68A389
:101F4000D3E90023FEF724FE32463B46FEF7D6FFD8
:101F500065A3D3E90023FEF719FE32463B46FEF7A0
:101F6000CDFF63A3D3E90023FEF712FE32463B46C2
:101F7000FEF7C4FF02460B4620462946FEF706FE42
:101F800002460B4606460F4620462946FEF7B6FF98
:101F9000CDE90201BAF1000F5AD100224FF080437F
:101FA00030463946FEF7F2FD02460B46DDE90201F6
:101FB000FFF7CEF822462B46FEF7E8FD02460B4619
:101FC00000205B49FEF7E2FD6FE75A4B20462946A9
:101FD00003EBC60648A3D3E90023FEF78FFFD6E93B
:101FE0000023FEF7D5FDFFF739FA8246FEF71CFF06
:101FF00006460F4642A3D3E90023FEF77FFF0246C1
:102000000B4620462946FEF7C1FD804689463046EC
:1020100039463DA3D3E90023FEF770FFCDE9000167
:102020006FE7454B9A420ED839A3D3E90023FEF758
:10203000AFFD00223E4BFFF7F1F938B100223C4BD7
:10204000204629462FE74FF0000A62E7824660E704
:1020500032463B4600204FF08041FEF797FD024696
:102060000B46DDE90201FFF773F802460B46DDE996
:102070000001FEF78BFD42464B46FEF787FD0B46FF
:1020800002462B490020FEF781FD0B466FF47F715D
:1020900006468A4503DB344603EB0A550BE70AF58F
:1020A0007A7A3046002203EB0A514FF0B873FEF7FC
:1020B00025FFFAE600240025FDE600BFAFF300800F
:1020C000EF39FAFE422E864051302DD5104987C097
:1020D000D0A4BE726937663EF16BD2C541BDBB3E2E
:1020E0002CDE25AF6A56113F93BDBE166CC1663F0C
:1020F0003E5555555555C53FFE822B654715F73F53
:102100000000E0FE422EE63F763C7935EF39EA3DAD
:102110009C7500883CE4377E412E8640FFFFEF7FB0
:10212000422ED63FB1A2F03FF8A30000E8A3000082
:102130000000F03F08A40000FFFFEF3D000000009A
:10214000B1F5801F2DE9F04F074687B088460D4650
:1021500025DA21F00043034305D1012007B0BDE893
:10216000F04F05F073BD002904DA07B0BDE8F04F69
:1021700005F078BD0022C64BFEF7C0FE88460D462E
:1021800007466FF03501C34885420ADD3A464346AB
:1021900038464146FEF7FCFC07B0BDE8F08F002151
:1021A000F1E72C15C5F3130500223846A4F2FF34DD
:1021B0000C4405F5152101F6647101F4801686F0D2
:1021C0007F5104EB165481F4401141EA050319468E
:1021D000B14BFEF7DBFCAB1C82468B46C3F313030B
:1021E0000022022B53DC0023FFF7F0F8D0B1002CC3
:1021F00000F020812046FEF717FE06460F4690A30A
:10220000D3E90023FEF77AFE04460D4630463946F0
:102210008DA3D3E90023FEF771FE02460B4620464C
:102220002946B7E78AA3D3E9002350465946FEF76B
:1022300065FE02460B4600209849FEF7A7FC0646BD
:102240000F4652465B4650465946FEF757FE024639
:102250000B4630463946FEF751FE06460F4614B986
:1022600032463B46A0E02046FEF7DEFD804689462A
:1022700073A3D3E90023FEF741FE04460D46404612
:10228000494671A3D3E90023FEF738FEA5E04FF0DD
:102290008043A5F5C226FEF77BFC02460B4650465E
:1022A0005946C5F5D725FEF753FFA6F27A465135B4
:1022B000CDE9000120463543FEF7B6FDDDE90023F8
:1022C000CDE9020110461946FEF718FE02460B46FC
:1022D000CDE90423FEF712FE804689465EA3D3E9CA
:1022E0000023FEF70BFE5EA3D3E90023FEF750FCAC
:1022F00042464B46FEF702FE5BA3D3E90023FEF7FE
:1023000047FC42464B46FEF7F9FD59A3D3E90023AB
:10231000FEF73EFCDDE90423FEF7F0FD56A3D3E90A
:102320000023CDE9040140464946FEF7E7FD54A3EA
:10233000D3E90023FEF72CFC42464B46FEF7DEFDB8
:1023400051A3D3E90023FEF723FC42464B46FEF798
:10235000D5FD02460B46DDE90401FEF719FC002D10
:102360008046894648DD00224C4B50465946FEF7D0
:10237000C5FD52465B46FEF7C1FD02460B460646CA
:102380000F4640464946FEF703FCDDE90023FEF711
:10239000B5FD8046894664B902460B46304639464B
:1023A000FEF7F4FB02460B4650465946FEF7EEFB9D
:1023B000F2E623A3D3E90023DDE90201FEF79EFD47
:1023C00004460D4620A3D3E90023DDE90201FEF710
:1023D00095FD42464B46FEF7DBFB02460B46304678
:1023E0003946FEF7D3FB52465B46FEF7CFFB02466B
:1023F0000B4620462946D9E702460B465046594629
:10240000FEF7C4FBDDE90023FEF778FD06460F4624
:10241000002C3FF425AF0AA3D3E90023DDE9020134
:10242000FEF76CFD04460D4607A3D3E90023DDE962
:10243000020129E700200021AEE600BFAFF30080D3
:102440000000E0FE422EE63F763C7935EF39EA3D6A
:10245000555555555555D53F44523EDF12F1C23FB3
:10246000DE03CB966446C73F599322942449D23F5A
:10247000935555555555E53F9FC678D0099AC33FAA
:10248000AF788E1DC571CC3F04FA97999999D93FC1
:1024900000005043FFFFEF7F0000F03F0000E03FEF
:1024A00070B403460A46012406489C4006698568C4
:1024B000316821EA040131602C681946234670BC5A
:1024C000184700BF189A000038B54FF4C021032008
:1024D000FFF7E6FF4FF4C0210420FFF7E1FF4FF4C0
:1024E000C0210620FFF7DCFF4FF420210A20FFF770
:1024F000D7FF00F0DFF8084B0021186800F0BEFAA3
:10250000064D074C2946204605F064F8002147F6A1
:10251000122004F02DFEF5E7000000206CBF000043
:1025200087BF000010B51446220605D5074805F000
:10253000D9FC0122064B1A70E30505D5054805F0C4
:10254000D1FC0022024B1A7010BD00BF98BF0000E2
:1025500010070020A8BF00002DE9F34104460F46F4
:1025600015461E4683683C21DB689847002844DBFB
:102570006A462A21204605F0C4FB0198FFF7C0F8FF
:102580001F49FFF7C5F980460098FFF7B9F80146E3
:102590004046FFF701F86A462E213860204605F0D4
:1025A000B0FB0198FFF7ACF81549FFF7B1F9074602
:1025B0000098FFF7A5F801463846FEF7EDFF6A469A
:1025C0002B213060204605F09CFB0198FFF798F81E
:1025D0000B49FFF79DF906460098FFF791F8014671
:1025E0003046FEF7D9FF6A4628603D21204605F0B7
:1025F00088FB0020089B009A1A6002B0BDE8F081B9
:1026000000247449142230B504468BB00DEB02004F
:10261000002107F0BFF8204B20480893204B196891
:1026200005F060FC02AB0093204607AB06AA05A9A3
:10263000FFF792FF00282CDB03AA3B21204605F080
:1026400060FB0498FFF75CF81649FFF761F9044650
:102650000398FFF755F801462046FEF79DFF124903
:10266000FFF756F9114B0021186005A8FEF742FA52
:1026700007F081F84FF47A74A0FB0405002347F6B5
:10268000122204FB0151FFF77BFA094BC3E9000159
:1026900000200BB030BD00BF18A40000B6BF000082
:1026A000800100200024744900002041040400201F
:1026B000A801002073B5354806F0C4FE28B9344897
:1026C00005F010FC002002B070BD324806F0BAFEE2
:1026D00010B9314805F006FC304806F0B3FE08B9E1
:1026E0002F48EDE72F4806F0ADFE08B92E48E7E782
:1026F0002E4806F0A7FE08B92D48E1E72D4806F060
:10270000A1FE08B92C48DBE7224D2846FFF77AFFE7
:10271000002801DA2948D3E729492A4B1B484B6096
:102720004FF4C0738B6001F019FD044608B12648D0
:10273000C6E7AB685E68002EC4D06B46022221213A
:102740002846B0470028BDDBDDE90032134314BF43
:10275000012200221D4B21461A7016484FF4803288
:1027600005F0D2FA01211A4A124805F0CDFA1148B3
:102770000221174A05F0C8FA0C4806F025F810B9EE
:102780000A4805F0F1FF13489AE700BF609A00007D
:10279000D2BF0000209B0000EABF0000909A00001A
:1027A00005C00000C09A000023C00000A89A0000E5
:1027B0003CC00000789A000055C0000070C00000C6
:1027C000F80300202525000092C00000100700201B
:1027D00000010600B0C00000014B1B68184700BF95
:1027E00004000020014B1860704700BF0400002067
:1027F00030B585B004460D4610220021684606F02B
:10280000C9FF02238DF80230044B2A462146684650
:10281000019304F0F1FE05B030BD00BFD9270000E0
:1028200080B505460E461746984604F0C1FC03469F
:1028300007F074F80446DFF81890424649F8003073
:1028400039463046A84754F8090000F057FB00BF4E
:10285000080000002DE9F047058B04462807904644
:1028600011D4022905F0070540F0CC80204605F080
:1028700046FB78B10138218B042811D8DFE800F03D
:10288000C2106D85950001290CBF45F0100545F07B
:102890002005258388F31188BFF36F8FBDE8F0878B
:1028A00001F0070AAA4500F0A5800027B9463E4678
:1028B000A368002B00F0BC8041F00801218388F35D
:1028C0001188BFF36F8FA168002900F0BA800D68EE
:1028D000002900F0B680334652462046D1F80480E5
:1028E000C047002D76D02B6829461D46F0E701F041
:1028F00007035A1F012A1BD8002221F00701062BCB
:10290000276889B2C4E9002209D13B4603E0628B03
:10291000013262831B68002BF9D141F0020120468D
:10292000218305F0ECFA00287AD041F0200176E00E
:10293000042B0AD121F0070189B22046218305F03A
:10294000DEFA10B141F020012183218B01F0070A4A
:10295000AA454FD00027B946AAE7236921F007010D
:1029600041F00601062DD3F8009021832DD1B9F155
:10297000000F3FD041F00801218388F31188BFF395
:102980006F8F20463949C84729E021F007012369A4
:1029900041F0040189B2042DD3F804902183E6D0DC
:1029A00000274FF0040A3E4682E721F00701236921
:1029B00041F0050189B2052DD3F808902183D6D0C6
:1029C00000274FF0050A3E4672E700274FF0060A3F
:1029D0003E466DE72B4687E7B9F1000FD1D1EFF303
:1029E0001188202383F31288BFF36F8F238B23F08A
:1029F00008032383258BEA062ED525F010032383B5
:102A000005F007056669218B002EBFF670AF002325
:102A10002768C4E9003321F0070141F00101218357
:102A2000218B4FF0000901F0070AAA457FF440AF5F
:102A3000002F9CD041F00801218388F31188BFF357
:102A40006F8F002FC8D03D68394633465246204626
:102A500005F081FA2F46F4E7AB067FF51BAF25F0B2
:102A60002003238305F0070500E700BF837F0000F4
:102A7000014B03600020704718BA000070B544692C
:102A80000D469CB31E4A2379565CB34231D01D4A91
:102A9000525C9A4230D1A3689847002810DA022D80
:102AA0000CD0032D0BD110F1860F07D0D4E8EF3FE7
:102AB00043F00203C4E8E23F002AF6E7267170BD46
:102AC000022D267101D00020F9E7D4E8EF3F23F072
:102AD0000403C4E8E23F002AF7D1D4E8EF3F23F033
:102AE0000203C4E8E23F002AEDD0F6E76FF057009A
:102AF000E5E76FF07700E2E76FF08500DFE700BF02
:102B0000CCC00000C8C0000008B5044805F0EAF9D0
:102B1000BDE80840024805F0E5B900BFD0C000009C
:102B200005C1000030BFFFF7FDBF00BF2DE9F04138
:102B300005460B4EDFF82C80324606EB0807CC1B0F
:102B40002046094906F019FEA01942460021083C1A
:102B500006F020FE2C6707F10800BDE8F08100BFF9
:102B60000000000004000000B0A30000074A9368C2
:102B700093F90E10002907DB526993421FBF044AE4
:102B8000536843F080535360704700BFE80500204E
:102B900000ED00E0154B9A6A12F0007F9A6A14BFAC
:102BA0001E201D2012F0807F9A6A18BF1F2012F489
:102BB000801F9A6A18BF022012F4002F9A6A18BF69
:102BC000212012F4802F9A6A18BF222012F4003FAD
:102BD0009A6A18BF232012F4803F9A6A18BF2420F3
:102BE0006FEA02426FEA12429A62704700ED00E01B
:102BF00010B5194B0246986A9C6A10F4805F14BFA6
:102C00001720162014F4006F9C6A18BF1820A40522
:102C100009D5986B986A000404D51AB19A6A22F40F
:102C200000429A6219200C4B9A6A12F4806F9A6AD9
:102C300018BF1A20D2050CD49B6A13F4005F18BF8A
:102C40001C20054A936A43F47F43936200230B7070
:102C500010BD1B20F5E700BF00ED00E010B51C4BD8
:102C60000246986A9C6A10F0100F14BF11201020C1
:102C700014F0080F9C6A18BF1220A40709D5586BDE
:102C8000986A000604D51AB19A6A22F080029A6204
:102C900013200F4B9A6A12F0010F9A6A18BF142082
:102CA00012F0200F9A6A18BF1520D40658BF9B6AED
:102CB000074B9A6A920642BF5A6A22F400525A623D
:102CC0009A6A42F0FF029A6200230B7010BD00BFA7
:102CD00000ED00E0F0B5474B04465B6800258BB083
:102CE000C3F3080385F31188BFF36F8F02F07F40B1
:102CF000B0F17F4F11D102F00C0008280DD0100761
:102D00004CBF0C4601250022033B8DF80720032B06
:102D100005D8DFE803F02462665F2C46F3E7002362
:102D20009DF80720CAB902AE04F120073246206898
:102D30006168083403C2BC421646F7D1099A002DD7
:102D400053D0C2F3080121B96FEA52226FEA42223E
:102D50000992184602A905F0FBF90BB0F0BD254B0E
:102D6000DA6A9107DBD4DA6A002AD8DBDA6A520021
:102D7000D5D55A69A16942F480725A61BFF34F8F69
:102D8000BFF36F8F5A6931F8021C22F480725A61C6
:102D9000BFF34F8FBFF36F8F4DF60272914209D090
:102DA0009A6AD2B242B101200DF10701FFF756FF36
:102DB0000346B5E72368B3E79A6A12F47F4F05D05C
:102DC00001200DF10701FFF713FFF1E79B6AB3F54F
:102DD000803FA4D3FFF7DEFEEAE700200DF10701F4
:102DE000E4E700200DF10701EDE722F4FF7222F085
:102DF0000102ADE700ED00E0064B5A6942F0100217
:102E00005A615A6942F480625A615A6922F0080292
:102E10005A61704700ED00E0EFF30880EFF309819D
:102E200001B57246FFF756FF01BD00BF002080F3D9
:102E30001488BFF36F8F002080F30A8880F30B881B
:102E400001F066FF00200E490860BFF34F8F0D4868
:102E500080F3088800F02CF8202080F311880A48BD
:102E60004FF40061401880F30988EFF314800221C9
:102E7000084380F31488BFF36F8F00F0EFF8000071
:102E800094ED00E068140020280700200023184675
:102E90000649D1F89020C2F30722934200DB704725
:102EA000C1F89830C1F8A0000133F6E700ED00E06A
:102EB00010B572B6002484F31388FFF7E7FF2346AA
:102EC0004FF0FF300C4A03F120010133102B42F880
:102ED0002100F8D100234FF0FF30074A03F16001D1
:102EE0000133102B42F82100F8D162B6BFF34F8FA7
:102EF000BFF36F8F10BD00BF00E100E0084B9B687F
:102F000083420BD1EFF3058343B1064B5A6842F07D
:102F100080525A605A6A22F400425A6206F0CEBBCE
:102F2000E805002000ED00E06FF00A01084A936810
:102F30009967084958674B6843F080534B600023FA
:102F400083F31188BFF36F8F9368986F704700BF4A
:102F5000E805002000ED00E0EFF31183202383F368
:102F60001288BFF36F8F4FF00061084A5369936076
:102F7000074A5160196F074A116000215A6F59675B
:102F800082F31188BFF36F8F704700BFE805002000
:102F900000ED00E0080400200E498A684FF0300080
:102FA0001044EFF3098C80E8F01F74467046FFF779
:102FB000D3FFA64607498A6802F1300090E8F01F67
:102FC0008CF3098802F1000004B505F0D6F8BDE8DD
:102FD00004407047E80500201EF0040F0CBFEFF31B
:102FE0000880EFF30980816911F8021C0229FFD0E3
:102FF00001B505F0B3F801BD00B2002807DB0123DD
:103000004109034A00F01F00834042F82130704715
:1030100000E100E0054B420953F82220012300F0B3
:103020001F0003FA00F01040704700BF00E100E00D
:1030300000B2002801F10101ACBF00F16040064B75
:103040004FEA4111C9B2ABBF00F5614000F00F007B
:1030500080F800131954704714ED00E00B4A08B5CE
:103060000B4B22F07F029A60BFF34F8FBFF36F8F3D
:10307000D3F8882022F47002C3F8882003F0A0FA65
:1030800004F034F900F04CF803F0DAFA0000000024
:1030900000ED00E042F8203C009B0B4942F81C3C4C
:1030A000019B21F0010142F8183C029B42F8081CE8
:1030B00042F8143C4FF0807342F8043C0023203A5D
:1030C00002654367704700BF2128000000B50D4B23
:1030D00015469860026F0C4B0E461A60036E83F320
:1030E0000B882C4686F309884FF00000074B984761
:1030F00020464FF000014FF000024FF00003044C57
:10310000204700BFE805002008040020838100005C
:10311000212800001022014B1A61704700ED00E0E9
:103120000023202040F20F1210B5044CE1180133A7
:10313000934281F80003F9D110BD00BF00E100E027
:1031400008B5EFF30583064A103B02EBC30152F8C2
:10315000330049688847BDE80840FFF707BD00BF56
:10316000389B00001FB5094C094A23460121094834
:1031700000F0FAF800230393074B0121E41A01A899
:103180000193029400F0FAF804B010BD00F00220A0
:103190000000002018BA0000A801002010B50C7A29
:1031A0000B6804F01F0223F01F031A43CB68640965
:1031B00023F01F03054943EA440343F00103C1F828
:1031C0009800C1F89C20C1F8A03010BD00ED00E0CF
:1031D00010B5074BD3F89030C3F30723013B984257
:1031E00002D8FFF7DBFF10BD6FF01500FBE700BF53
:1031F00000ED00E02DE9F04F0F46144606464FF073
:1032000000084D4D85B0B84580F29280D6F8049004
:10321000B9F1000F36D0B9F11F0F40F2878019F0D5
:103220001F0F40F08380D6F800A01AF01F0F7DD149
:10323000504604F0C9FF834609EB0A00013804F048
:10324000C3FF834572D11BF1160F6FD05C456DDD56
:10325000C5F898B0D5F89C10C5F898B0D5F8A0304E
:1032600021F01F0143F01F0AD6E900321A449942A7
:1032700002F1FF391ED1CA4508D131465FFA8BF001
:1032800004F0ABFF08F101080C36BCE73146C5F885
:1032900098B0D5F89C3022F01F0203F01F031343AF
:1032A000C5F89C30E0B204F098FF10F1160F3DD045
:1032B000441CE7E7C5F898B0D5F8A020013B23F0FF
:1032C0001F0302F01F021343CA453146E0B2C5F89E
:1032D000A030E8D004F081FF10F1160F26D0C5F819
:1032E00098B0D5F89C209DF808300AF1FF3A62F3B7
:1032F00004038DF80830D5F8A0309DF808205B084D
:1033000063F347128DF80820D6E900321344009386
:1033100023F01F035344A3EB0903013023F01F03E1
:103320006946C0B20393FFF753FFBEE76FF0150481
:10333000204605B0BDE8F08F00ED00E00522044B0B
:10334000C3F89420BFF34F8FBFF36F8F704700BF58
:1033500000ED00E0BFF35F8F0022024BC3F8942022
:10336000704700BF00ED00E010B5034C2278FFF776
:1033700041FF207010BD00BF110700202DE9F74F5D
:10338000294D8A4606464FF00008AB46274FD045E8
:103390001BDAD6F80490B9F1000F3FD03168084627
:1033A000019104F011FF0199044609EB0100013875
:1033B00004F00AFF84424FF014021D4B08D002FBB8
:1033C00008F36FF015024BF8032003B0BDE8F08F4F
:1033D00014F1160F2C60F8D01978A142F5DD02FB2C
:1033E00008B0C7F89840C7F89840D7F89C4000F15B
:1033F0000801007B64F304000871D7F8A0000C7981
:10340000400860F347140C71D7F89C1021F01F019D
:103410006960D7F8A01021F01F01296108F10108A7
:1034200014350C36B3E700BF0C04002000ED00E0BB
:1034300011070020F0B54149414CD1F89030256882
:10344000C3F307239D4287B075D80020FFF782FFA2
:103450003C4BC1F8C030854216D13B4C01A82570C9
:10346000FFF706FB00250646384FAE4213D1002079
:1034700023783249D1F89020C2F30722934254DBDB
:10348000FFF75CFF00202FE0616801EB0011FFF700
:1034900085FE0130DFE70199280101EB0513DA68A9
:1034A0003A40B2F5001F21D0B2F5800F2BD0B2F513
:1034B000801F38D15A689B680958013B22F01F00D1
:1034C00003440120844623F01F0340EA4C10CDE959
:1034D00002218DF8100002A920780593FFF778FEED
:1034E00000281DDA6FF0150007B0F0BD5A689B6820
:1034F0000958013B22F01F0003444FF0020C012049
:1035000023F01F03E1E75A689B680958013B22F04A
:103510001F0003444FF0000C062023F01F03D4E7E4
:1035200023780133237001359FE7C1F89830C1F843
:10353000A00001339EE74FF0FF30D5E700ED00E03B
:1035400024BA0000AAFF4400110700200000F0FF89
:1035500008B5024B1B689847002008BD20040020D6
:10356000034B044A1860937843F00203937070474A
:10357000200400200800002008B50649064821F074
:103580000701C1F1005202F53C3204F051FC002069
:1035900008BD00BF6F1800202404002008B501F00A
:1035A000A1FB00F05DF841F6F8732248D0F824162C
:1035B000C1F3080203EA5133132182F48072883286
:1035C00001FB02331C4A590ADB0548BF0131C2F82E
:1035D0000419D0F820364FF47A60C3F30801C3F31E
:1035E0000943434342F21C5081F4807101F21721D8
:1035F00000FB01334FF47A701B0AB3FBF0F100FBC0
:103600001133B3F5FA7F28BF01310A4BC2F81C17FA
:10361000D3F840331C2B08D13423C2F82436D2F817
:103620003C3623F40023C2F83C360123C2F80036AE
:10363000002008BD00C0FF000000125048B1054B3B
:10364000054A1B68B3FBF2F35843044B43F00103F4
:10365000184770474400002040420F00D0A30000EC
:103660000122024BC3F80424704700BF002008E089
:10367000084B70B5C31A0D4607499B1004465943C1
:103680004022064804F0D0FD2B4601462046BDE806
:103690007040184744040020B76DDBB6D099000095
:1036A000402373B50B4C0093041B0B460D460A498F
:1036B000A41061430646094A094804F0E1FD011ED1
:1036C00005DA30462B4602B0BDE87040184702B01C
:1036D00070BD00BF44040020B76DDBB6EB82000074
:1036E000D099000010B5EFF31184202383F31288E2
:1036F000BFF36F8F084A136823F00201DB071160E4
:1037000005D4012005F058FD0122044BDA6084F352
:103710001188BFF36F8F10BD9404002000E010509B
:1037200070B500220121044640F20510FFF780FC2D
:103730000F4801F0E7FB0F4B984215D101F0F2FB67
:1037400026690D49304604F029FC00280BDB0125D1
:1037500035642469084904F11C0004F01FFC0028AA
:1037600001DB0020E56470BD6FF00400FBE700BFE3
:10377000793800000000AD0B50BA00001FB50022E0
:103780000123CDE902236B46084ACDF800D0CDF8DD
:1037900004D004F0A3FD002805DB43F60952002302
:1037A000684603F091F805B05DF804FB098300005A
:1037B0000C22104B014602FB0033002030B4D3E949
:1037C0000E529863EFF31180202484F31288BFF324
:1037D0006F8F1C6C04F0C00444F002041C6480F37E
:1037E0001188BFF36F8F1DB12B4630BC02481847BC
:1037F00030BC704744040020D099000010B4EFF3AF
:103800001182202181F31288BFF36F8F174803685C
:1038100043F0020413F0010F0460154B08D182F34A
:103820001188BFF36F8F0120986010BC01F090BB2E
:10383000D3F80C04C003F2D5EFF3118081F31288A2
:10384000BFF36F8F0B490B6C03F0C00343F002030F
:103850000B6480F31188BFF36F8F82F31188BFF37D
:103860006F8F002010BCFFF7A3BF00BF940400209F
:1038700000E010504404002010B1012804D070472B
:10388000034B1B6C5B0701D1FFF792BF704700BF72
:1038900044040020C3B21C20014A03FB00207047EF
:1038A000440400202DE9F041012207463449D1E8C3
:1038B000EF3FC1E8E02F0028F9D133B93149324850
:1038C0004B60CB608A6004F07CFB7B1E012B28D808
:1038D000012F06D12D4BD3F8503403F00303012BF5
:1038E0001FD005F03DFE0546E8B9294B1B78D3B142
:1038F00004220646254BC3F80823244CDFF89480A5
:10390000D4F84C24D4F84C34D20315D503F0030377
:10391000012B01D0012F0FD165B386F31188BFF3BE
:103920006F8FBDE8F081EFF31186202383F31288B7
:10393000BFF36F8F0125E0E7BDB1304604F035FCE1
:10394000D4F8403413F0FF03DAD1D4F80821002A68
:10395000D6D0C4F80831D4F8083120220123C4F8A5
:103960004034C8F8A0212361CAE70021202003F0D9
:10397000FFFBE5E70422054BC3F80423D1E700BFB2
:1039800040040020300400206004002000E01050BB
:103990002407002000E100E008B5074805F052FDCB
:1039A00038B10648FFF7DCFD0448FEF71BFF002096
:1039B00008BD6FF01200FBE7309A0000C13900002B
:1039C0000A2838B50446074D04D1AB680D212846B6
:1039D0005B689847AB6803485B68E1B2984720464C
:1039E00038BD00BF309A000038B545682B69E3B197
:1039F0001035284601F012FF0446B0B901462846AA
:103A000001F0CEFE0B4B984211D1224628460A49BE
:103A100001F09AFE22460121DB20FFF709FB224636
:103A2000012140F20D10FFF703FB002038BD6FF0BD
:103A30000400FBE70000AD0BC13B00002DE9F043A3
:103A400040F206354668D00648BF0320337B02EAC1
:103A5000050558BFC2F3401087B001F01F07B5F548
:103A6000837F144647EA43178DF8030046D00FD8EA
:103A7000062D45D007D8B5B1022D14D06FF0150032
:103A800007B0BDE8F083B5F5807FF7D101250AE0E6
:103A900040F20222954235D0B5F5407F34D0B5F5DD
:103AA000007FEBD104250123220303FA01F12DD578
:103AB00073685960326972BB5F2F07F01F034FEACA
:103AC000571175D83C4A52F8212084F4803102EB1A
:103AD0008302D2F88030C1F30041C4F3404423F4A0
:103AE000706344EA410423F00F031C4344EA80045A
:103AF00044EA0524C2F880400020C1E70925D2E746
:103B00000825D0E70625CEE70525CCE7630344BFAB
:103B100073689960CEE71036394630460DF10202DF
:103B200001F020FE14F4403F80460CD13946304667
:103B300005F007FC214B9845DED130469DF8021078
:103B400001F07AFED8E74FF0000901AB3946304664
:103B500003AACDE90439CDE90199CDF80C9001F023
:103B600069FC164B984289D114F4003315D09DF8A6
:103B7000033084F48034C4F300448DF80E303946A9
:103B80004B46304603AA8DF80C508DF80D4001F0DD
:103B900047FD0A4B9842CDD070E7CDE90433394652
:103BA0000DF10303304603AA039301F043FCF0E751
:103BB000203352F82330FFDEB4BA00000000AD0B12
:103BC0004209022A034670B503D0012A18D0CAB1AF
:103BD00070BD0E4E326951680029F9D0012503F0FD
:103BE0001F030C689D400029F2D08A682A4002D049
:103BF00030464B6898473CB1236821461C46F2E7A3
:103C0000034EE7E7034EE5E72346F6E7189A000080
:103C1000009A0000E8990000F0B5406801F01F0428
:103C2000057B87B044EA45140569002D63D0B2F5E1
:103C3000001F00F1100506D12146284605F083FB40
:103C4000002007B0F0BD0027B2F5800F01AE01974C
:103C500077603BD1B3F1007F14BF052304238DF8B7
:103C600004300023CDE904630393836823FA01F150
:103C700011F001011CD1B2F1A07F19D104F01F0392
:103C80005F2C4FEA541003F120033AD81E4A52F831
:103C9000202052F82330DB070AD40DF10306324608
:103CA0002146284601F05EFD184B984219D0029635
:103CB0002146284603AA01F0BDFB154B98421DD1B1
:103CC00001222146284601F0CFFDB9E7B3F1C06FCC
:103CD00005D0B3F1007F14BF01230223BFE7032304
:103CE000BDE73146284601F0B3FD094B9842DED0CE
:103CF0006FF00B00A5E76FF08500A2E76FF01500ED
:103D00009FE751F82330FFDEB4BA00000400AD0B8A
:103D10000000AD0B02780B69012A08D0022A08D0F6
:103D20004AB9064A1A6203F1100002F0A9BD044A1A
:103D3000F8E7044AF6E7044AF4E700BF0000AD0BD9
:103D40000100AE0B0200AE0B0100AD0B2DE9F04FF0
:103D500087B0049343680546D3F828909B8B0C46A4
:103D60009046076903934FF0FF324FF0FF33384618
:103D700002F0AAFD07F1100302930026002300229F
:103D800007F1100002F0A0FD3346464501D30023A1
:103D90004DE0207A010775D40136464521680BD2E3
:103DA000820709D4227D80EA020C0CF0010C02F09B
:103DB00004025CEA020C08D023B901F06042B2F1BF
:103DC000005F1AD04FF0000A01E04FF0010A62686C
:103DD000DDF80CE003EB020CF44556D8C00705D41F
:103DE00009EB0300059305F0C8FC059B62681A44C3
:103DF00093B2BAF1000F2ED113BB4FF0000AD4F8E2
:103E000000B0A388049A217A284600925A4600F00E
:103E10006BF8031E0BDB43F609520023029802F0F5
:103E200053FD80B1284600F035F86FF0040302938B
:103E3000384602F025FD029B184607B0BDE8F08F1A
:103E40009A46CB46DEE73B6A114A9342EDD1237A8C
:103E5000DB0702D400230C3497E7CB45FAD1A34605
:103E600009E0AAEB02011FFA81FADBF80C0019FA4B
:103E700081F105F082FCDBF80420ABF10C0B9245DC
:103E8000EFD2E7E76FF08503D1E76FF01B03CEE7D2
:103E90000000AD0B73B544680DF107012368D3F83A
:103EA0000056D3F8046604F026F99DF8073013B9DC
:103EB000204601F0FBFF3146284602F087FA9DF8C4
:103EC0000710054629B9606A04F03EFB204601F060
:103ED000DDFF044B9D4214BF6FF00F00002002B0C5
:103EE00070BD00BF0000AD0BF0B50C461D46164678
:103EF00087B04768122200210DF1060005F04AFC48
:103F000004F001038DF80430BDF8303002958DF8CF
:103F10000530BB8D0496AB4214D384F00202C2F389
:103F200040023846520101A901F0E0FF084B9842D7
:103F30000BD00B33984214BF6FF004006FF00F00EA
:103F400007B0F0BD6FF01B00FAE70020F8E700BFF4
:103F50000000AD0B38B5044645682B6A984701212F
:103F6000686A04F0F1FA23462846AA6905F10801B7
:103F700001F052FF054B984205D12046BDE838407C
:103F8000034904F0CDB86FF0040038BD0000AD0B5C
:103F9000678500002DE9F0414568044606692868F8
:103FA00005F050FA18B96FF01200BDE8F081304604
:103FB00005F08EFA7461AB68BBB904220B21204670
:103FC0006B7C04F05EFB0028EFDB06220B21204611
:103FD000AB7C04F056FB0028E7DB01232046BDE85C
:103FE000F0411A460B2104F04CBB05230621204664
:103FF0002A7C04F046FB0028D7DBA86805F022FAEB
:104000000028D0D0EB89A868297B43F480320127AF
:10401000D0F810C013F0010FDCF8003007FA01F7F8
:1040200014BF3B43BB43D0F808E0CCF80030DEF8C7
:10403000003098470028B8DB01272B7B144A07FA89
:1040400003F3C6E90723A86806F118018368DB6952
:1040500013B96FF05700A8E73A4698470028A4DB49
:104060000C4BB362A868297B826803699669002EAD
:10407000EFD01B688F401F4214BF4FF000734FF00A
:1040800080634FF0A072B047002896DA8DE700BF3A
:10409000FD85000099400000262300222DE9F04F05
:1040A000044650F8100C91B0D0F8049011460093DB
:1040B00006AB04F0BDFA002805DA204602F026FD22
:1040C00011B0BDE8F08F0026234F97F8008097F8D5
:1040D00001A008F140036B4413F8273C1AEA030FD0
:1040E00013D0216931B1012354F8100C0D6803FA83
:1040F00006FB11BB08F101025346002154F8100CD5
:10410000D2B204F0BEFA0028D7DB01360E2E07F13A
:104110000207DAD1D9F8080099F80C5006698368CB
:1041200005A95B6898470028C7D1059B32685A40AB
:104130000123AB401A42C3D0BFE78A681BEA0202E0
:1041400003D04B680390984703981DB12B6829460C
:104150001D46CEE72B46FAE794C100002DE9F8434F
:104160000D4600270469DFF86480AB68FB40DB077D
:1041700013D401370E2F08F10208F6D1636B23B177
:10418000294604F1340004F01EFA636B2B60A36B24
:10419000656303B9A563002015E098F8006098F8FE
:1041A0000190721C4B4600216069D2B204F069FA9A
:1041B000002808DBB21C4B4600216069D2B204F033
:1041C00060FA0028D5DABDE8F88300BF94C100008A
:1041D000036803F01F025F2B02604FEA53129ABF7D
:1041E000024B53F822000020704700BFB4BB000010
:1041F0002DE9F04F1546834640F2FF18DFF8549141
:10420000DFF854A185B000EB8101594503D10020AE
:1042100005B0BDE8F08FDBF80030C3F3C322082AF5
:10422000C3F3080400F28F801B0E444508BF4FF013
:10423000FF3419F80270192B00F28880DFE803F0D0
:104240000D141A1D20261D86868686356286868672
:10425000868686868686657A7D80C5F80446621CD9
:104260005DD10BF1040BD0E7C5F80C46631CF8D008
:1042700000265DE0C5F81046F1E7C5F80846F5E709
:10428000661CC5F80046ECD0002604E0601CC5F8AA
:104290000446E6D0012603A80394FFF799FF012204
:1042A000039B02FA03F3836008E0C5F80046002F81
:1042B000DCD1631CD5D0002608273246DBF800305D
:1042C000039403F40040002818BF002203A818BF7D
:1042D000012601930092FFF77BFF039C019B00EBFB
:1042E0008400D0F88040C3F3412C009A3B0243EA9B
:1042F0008C03134304EA0A04234343EA4603C0F849
:104300008030AEE7C5F80446D1E7C5F86045621CC9
:10431000DBF80030A5D0C3F30043002BBAD0012650
:1043200003A80394FFF754FF039B06FA03F34360CB
:104330003246C3E7C5F86445E9E7C5F86845E6E7EE
:10434000C5F86C45E3E76FF0150061E76FF0850095
:104350005EE700BFB0C10000F0F0FCFF17289FBF70
:10436000054B584300F5742000F510709ABF0860A3
:1043700000206FF015007047A086010010B5134CA7
:10438000A1421DDD124B98421ADCA04206DD994283
:1043900006DD17236FF02100138010BD0023F9E71D
:1043A0006FF43A63A0F55B2018440A4BB0FBF3F0BE
:1043B0001080584300F5742000F51070884202D92F
:1043C0006FF01500E9E70020E7E700BF3F420F006C
:1043D000A05A3200A08601000122014B1A607047EA
:1043E00000700D500C2903690BD15B6A0649074820
:1043F0004B4393FBF0F100FB11331160002053603D
:1044000070476FF08500704790D0030040420F0066
:104410000022044B0069C3F80021D3F8003102F0F8
:104420002FBA00BF00700D507FB50569AB6A63B34A
:104430003C2901D00C292BD105F110064FF0FF3299
:104440004FF0FF33304602F067F9134B002401931D
:1044500003236946A86A0394029303F0B2FD4FF068
:10446000FF324FF0FF33284602F02EFAA86A03F01D
:10447000FFFD0A4BD3F808256A6201225A603046D4
:1044800002F0C2F9204604B070BD6FF00A00FAE7EE
:104490006FF08500F7E700BFD943000000700D50B2
:1044A00010B504690020FFF7F5F9A0624FF0FF3264
:1044B0000021204605F013F804F1100005F008F87B
:1044C00000220121D720FEF7B3FDD720FEF794FD8F
:1044D0000122024B0020C3F8042310BD00700D50D0
:1044E00037B50D46212D11461C46406814D03B2D92
:1044F00027D10A2A25D10422032100680DF10703E0
:1045000004F0B8F820B99DF80720C4E90020002085
:1045100003B030BD1046F8E7022A12D10522006828
:104520000DF1070304F0A6F80028F1DB9DF8072041
:10453000002AEFD012F00A0F14BF01220022024815
:10454000E3E76FF08500E3E720A1070070B50C29D1
:1045500014464568036900F092802A398AB2142A09
:1045600000F29880142900F29580DFE801F00B50EA
:1045700093811B93939393939393939393939376B2
:1045800093707400188841F2883358434FF47A735B
:104590008012B0FBF3F203FB12005843226060600C
:1045A000002070BD9888FDF7A7F801464FF08940BC
:1045B000FDF7AEF94FF07E51FCF7ECFFFCF746FC3F
:1045C000FDF7BEFDFCF792FF0646A88EFDF794F8B6
:1045D00001463046FDF79CF901463048FCF7DAFF0A
:1045E00001464FF07E50FDF793F92D49FCF7D2FFBD
:1045F0000546FDF79FFA4FF07E512060284603F0F4
:1046000085FA2849FDF7D0F8FDF794FAC7E75A88EC
:104610009B7A0D2B0ED80B2B0ED8042B11D000201B
:10462000504348BF00F2FF3080124FF47A7390FB82
:10463000F3F2B0E70F2BF2D1E8684FF44873404231
:1046400002E04FF47A73286990FBF3F0E8E71B7AF5
:1046500000202360A3E75B7AFAE7EA68124B92FB3B
:10466000F3F22260E86890FBF3F203FB120096E796
:104670002A690D4B92FBF3F222602869F3E7D88890
:104680000A4B58430A4B90FBF3F000F5C02000F2B0
:10469000AE50CAE76FF0850083E700BF0FCF5B3BEA
:1046A000339388430024744940420F0078783C00DB
:1046B00078ECFFFF2DE9F04F446887B0206804F0E4
:1046C000C1FE002800F05F8194F836300A220133E1
:1046D00005212068DBB203F0D4FF0646002854D140
:1046E00010254FF07E58DFF8A4A2DFF8A49204F161
:1046F00014076FF0004357F8040F98420BD10235AE
:10470000EDB2182DF5D16FF0004ADFF88892A24F74
:1047100004F124083EE0FCF7F3FF5146FDF7F8F8FA
:104720004946FCF739FF01464046FDF7F1F89B4941
:10473000FCF730FF8346A08EFCF7DEFF01465846AB
:10474000FDF732F8FCF782FB266BFDF781FB024692
:104750000B463046CDE90223FCF756FBDDE9022388
:10476000FCF7CCFBFCF7A2FE06448302B3FBF6F396
:1047700003F00302009203212A462068C3F3870353
:1047800003F08EFF06460028B9D0304607B0BDE8DA
:10479000F08F1A2558F8043F53450DD11A2DF8D142
:1047A00062687F4811460DF1160304F068FC16306C
:1047B00020D16FF01506E8E741F28832A9EB030338
:1047C0005A434BBF774B784B9B189B184CBF93FBBE
:1047D000F7F3B3FBF7F39BB203F00302009203215C
:1047E0002A462068C3F3870303F05AFF06460028D1
:1047F000D4D0CAE70C2203219DF81630206803F0BC
:1048000040FF06460028C0D1A268654811460DF158
:10481000160304F034FC1630CBD00D2203219DF892
:104820001630206803F02DFF06460028ADD1E2685F
:104830005E480DF11603A2F5FA6104F08FFB163005
:10484000B7D0BDF81630032103F0010200922068B2
:104850000822C3F3470303F023FF0646002894D140
:10486000226953480DF11603A2F69E4104F076FB2F
:1048700016309ED0BDF81630032103F001020092DD
:1048800020680A22C3F3470303F00AFF0646002804
:104890007FF47BAF6269474811460DF1160304F0BF
:1048A000EEFB163085D002229DF8163011462068A6
:1048B00003F0E7FE064600287FF467AF0E220321CF
:1048C00094F83730206803F0DCFE064600287FF4B9
:1048D0005CAF0F22032194F83830206803F0D1FE3A
:1048E000064600287FF451AF0123242205212068C9
:1048F00003F0C7FE064600287FF447AF02460123B7
:104900000521206803F0BDFE064600287FF43DAF78
:10491000012500952B462A460521206803F0C0FE9C
:10492000064600287FF431AF2B460C220521206873
:1049300003F0A7FE064600287FF427AF94F83A302C
:10494000BBB994F83B3033B1012306220321206820
:1049500003F097FEA8B994F83930002B3FF415AF57
:10496000012304220321206807B0BDE8F04F03F0C3
:1049700088BE2B4650220321206803F082FE0028C7
:10498000DFD0064601E76FF01206FEE600007A442B
:1049900033938843AE05060078783C000FCF5B3B2D
:1049A00014BE0000C4C3E1FF3C3C1E0008BE000072
:1049B000FCBD0000E4BD000013B50A2A446833D1F1
:1049C000212917D03B292FD11B6820683BB901232F
:1049D0000522032102B0BDE8104003F052BE0123BE
:1049E0000022032103F04DFE00BB0123042203211A
:1049F0002068EFE7D3E900120D4B0E4803FB0122BC
:104A00000DF10603114604F03AFB10F1160F0DD01C
:104A1000012202219DF80630206803F032FE28B9F9
:104A2000012302460221E3E76FF0850002B010BDCA
:104A300040420F00E4BD000038B5044600220121C9
:104A4000C620FEF7F5FAC620FEF7D6FA626853696B
:104A50001068C0F82435917E537ED58B0B43918B23
:104A6000127E294389B20B431343C0F86C35616849
:104A70000B68D3F8002242F48022C3F800220822F7
:104A8000C3F800250A6A0121C3F83C270022C3F8B5
:104A900040271965D3F830110029FBD0C3F8002551
:104AA0002046BDE83840014903F03ABB11910000AF
:104AB0002DE9F34104460D46476804F051FDA8B9BD
:104AC0002B4B1B7893B14FF02008642663681B685A
:104AD000D3F83031002B39D1012004F06BFB013EBB
:104AE000F4D10021202002F043FBEEE72022EFF377
:104AF00011831E4682F31288BFF36F8F61680968C5
:104B0000D1F8301121B983F31188BFF36F8FEEE72D
:104B10003B6A20461D7063680DF107013F6A1D68FE
:104B200003F0E9FA9DF807204AB90123C5F83C775C
:104B3000C5F84037C5F83021D5F830212B6586F30C
:104B40001188BFF36F8F02B0BDE8F081EFF31183DE
:104B50001E4688F31288BFF36F8F62681268D2F81E
:104B60003021002AD4D183F31188BFF36F8FB8E7C7
:104B70002407002073B514461D46684600F03CFF2C
:104B8000009BA342019BAB4114D30B4AD2E90061C5
:104B9000A41B24F01F0365EB010064099B1941EB82
:104BA000000144EAC060C2E9003102B0BDE87040D3
:104BB00002F076BC02B070BDB001002010B500223A
:104BC0000121E420FEF734FA002000F047FF114BEA
:104BD0000446984208D101200F4900F0D5FFA042B9
:104BE00005D00E4B984211D04FF0FF3010BD672218
:104BF0000B4B02201A60FEF755FE0A4A0020D2F83D
:104C0000183723F44033C2F81837EFE76FF00B0082
:104C1000ECE700BF0000AD0B400000200200AD0B30
:104C2000B405002000200E5007B5684600F0E4FEF1
:104C30000098074AD2E90032C01A019B4FEA50108F
:104C400063EB020340EAC36003B05DF804FB00BFFE
:104C5000B00100207FB5431C18BF20EAE07502A810
:104C600008BF6FF0004500F0C7FE02990E4B2020F0
:104C7000D3E900268C1A039961EB06032146C5FB94
:104C80000013402973F1000436BF014621F01F01D3
:104C9000002352184FF0010146EB03030091034833
:104CA00000F0D6FF04B070BDB00100203800002035
:104CB00003689A070CD50368DB070DD50922074B5B
:104CC000C3F80C250F22C3F8042501221A60FEE761
:104CD000034B0360EF3B0360704700BF0080105040
:104CE000F000FA50064BD3F80438012B05D0032B03
:104CF00002D1044B044A1A607047024B034AFAE798
:104D000000001250440000200090D0030020A107B2
:104D1000012208B5284B2948C3F80028FFF7C8FF2F
:104D20000830FFF7C5FF0830FFF7C2FF0830FFF774
:104D3000BFFF00F5F470FFF7BBFF214AD2F88C30BB
:104D400043F44063C2F88C300022D30003F57F03A4
:104D500003F54043D3F8001401310AD0D3F800140E
:104D600039B1D3F800140132D3F80434402A0B606F
:104D7000EBD1114BD3F84024CAB1124BD3F84023E6
:104D80001C2A08D1D3F834230F4B9A429EBF0A4BFA
:104D90000E4AC3F840260A4AD2F88C3043F44063E6
:104DA000C2F88C3000220A4BC3F8A02508BDC822E7
:104DB000C3F84024E1E700BF0000125000C50D50C9
:104DC00000ED00E000C0FF00001D0A1840E0A91E31
:104DD00000B0045030B50468ACB1B4FA84F30122D9
:104DE000C3F11F03DBB29A4024EA0202D0E8EF5F6E
:104DF000A54204D1C0E8EC2FBCF1000FF6D1EAD1F6
:104E000002480B7030BD0248FCE700BF0000AD0B4C
:104E10000200AD0B10B50368CB40DB0710D40123B3
:104E20008B40026843EA0201D0E8EF4F944204D17C
:104E3000C0E8EC1FBCF1000FF6D1F2D1014810BD63
:104E40000148FCE70000AD0B0400AD0BF7B50446CC
:104E500018B1012822D003B0F0BD0422284B064629
:104E6000C3F8082301225A61C3F80801D3F80831B6
:104E7000002342F21075224F8DF80730D4B1012C77
:104E8000E9D1D7F80C3403F480338EBB002BE2D089
:104E9000012004F08FF9013DF3D1DCE70022184B2B
:104EA0000DF10706C3F808035860C3F80021D3F8D2
:104EB0000031DDE7D7F84C3403F480333EB9002BE2
:104EC000C9D0012004F076F9013DF3D1C3E7D7F84A
:104ED0004C2402F003023270002BBCD09DF8073046
:104EE000002BB8D1012004F065F9013DC6D1B2E72D
:104EF000002B0CBF012300233370EFD1ABE700BFC1
:104F000000E01050044B1A7922B9012218601A717E
:104F10000248704702487047B80500200000AD0BFA
:104F20000C00AD0B08B5084B1B6843B140F20510EF
:104F3000FEF770F818B940F20510FEF75DF8002290
:104F4000024BC3F8402408BDB805002000E0105013
:104F500010B510B1012844D010BD274BD3F84C1424
:104F6000D3F84C24C80323D502F00303012B04D04B
:104F700013B10020FFF76AFF00231F4A0420C2F884
:104F8000403410224FF48473002103F1A04303F551
:104F9000871319601C68012402F1A04202F58712F0
:104FA0001460164A126802B3134BC3F80403D3E724
:104FB000D3F84824D107DFD5D3F850249207D8D4AA
:104FC0000E4A12681AB10422C3F80423C4E7D3F8C6
:104FD0000821002AFBD00022C3F80821D3F80831A9
:104FE000BAE700224FF48073CEE71A68002AFCD09B
:104FF00019601B68B0E700BF00E01050B805002042
:1050000010B51E4BD3F8002152B10020C3F80001A7
:10501000D3F800210122C3F80823194B1B689847D5
:10502000164BD3F8082172B10022C3F80821D3F837
:105030000821D3F84C24D3F84C24920714D1012230
:10504000C3F840241A610D4BD3F80421A2B1002209
:105050000220C3F80421D3F80421C3F80803084B45
:10506000BDE810401B6818470422C3F80823044B0E
:1050700001201B689847E6E710BD00BF00E0105014
:10508000B8050020036803F01F025F2B02604FEA9F
:1050900053129ABF024B53F822000020704700BF02
:1050A0009CBE0000034A4309D35C00F01F00184473
:1050B000C0B27047F8C1000070B505460846FFF75A
:1050C000F1FF36212A79174B01FB0202083233F82F
:1050D0001200C10525D56C240026C0F3432120F41D
:1050E000F85023F812002A7904FB02340E3434F805
:1050F000020F10F4807F03D0C0F34320814210D010
:105100000136232EF3D16C200024424302EBC1026E
:105110009C502A79BDE8704000FB02306030FFF7F8
:1051200079BE70BD48000020F0B50646002487B067
:10513000114F019117F8012B06AB03EBD20313F8C3
:10514000143C02F00702D34013F0010306D10134EE
:10515000032CEFD10023184607B0F0BD074A03AD7A
:1051600007CA85E8070055F824100A6A46F8242083
:105170000A62002AEBD0EEE708C20000B0A30000EC
:1051800010B504460846FFF78DFF362303FB0400E5
:10519000024B083033F81000400B10BD48000020CF
:1051A00010B504460846FFF77DFF362303FB0400D5
:1051B000034B083033F81000C0F3400010BD00BFAF
:1051C0004800002010B504460846FFF76BFF362361
:1051D00003FB0400034B083033F81000C0F3401009
:1051E00010BD00BF480000202DE9F04F0D46D0F85B
:1051F000141387B0C9B241F40031AA6D009004F0D5
:1052000054F8810306462ED50023696E03A8CDE924
:1052100003330593FFF788FFDFF868A1DFF868B173
:105220000DF10C091AF8013B05EBD30292F864204A
:1052300003F0070322FA03F3DA076AD4534B09F1A8
:10524000040953450BF1010BECD14FF40031AA6D69
:10525000009804F02AF8696E03A8FFF765FF00289C
:10526000DAD126F400360124002E73D107B0BDE850
:10527000F08F91FAA1F1B1FA81F19BF8004041EA77
:1052800044142046FFF70EFF083035F81080C80898
:105290004FEA98030193012319F8002001F0070158
:1052A00003FA01F122EA010209F8002002A802949F
:1052B000FFF7E8FE029A019B203250F82220C8F343
:1052C00082075B07B846C2F3014227D52846D7B20A
:1052D0002146424603F0CAFF02A80294FFF7D2FE1D
:1052E000029B203350F82330C3F301439F4207D180
:1052F0000021204603F0ABFF3946204603F0A7FF0C
:1053000002A80294FFF7BEFE0122029B02FA03F3F9
:105310000362D9F800100029ABD18FE7022A0DD122
:105320000321204603F093FF07F00503012BE7D18B
:1053300042462146284603F099FFE1E70221204634
:10534000019203F084FF032FF2D0019A032AD7D1F0
:10535000022FECE796FAA6F3B3FA83F304FA03F20A
:1053600026EA0206009A284602EB8303D3F81015BA
:10537000D3F81025C1F30811C2F3014203F076FF00
:1053800072E700BF08C2000008C200000BC20000A4
:105390002DE9F74305460846FFF784FE36222B79B0
:1053A000204F02FB0303083337F813300E46DB07A8
:1053B000044635D5284603F09FFF95F80490314602
:1053C0004846FFF7FFFE60B14846FFF7D9FE0022CE
:1053D000D5F8008000B208EB8003C3F81025C3F8AD
:1053E000102528463146FFF767FE36222B7901A8A3
:1053F00002FB03440023083427F814300196FFF71A
:1054000041FE019B00EB8300D0F88020064B134047
:1054100043F00203C0F88030044803B0BDE8F083D5
:105420000348FAE748000020F0F0FCFF0000AD0B55
:105430000400AD0B2DE9FF47174604460846FFF769
:1054400031FE3E688846054676B394F80490484697
:10545000FFF7A6FE18B14846FFF7B4FEA0BB002335
:105460004046CDE900338DF80E308DF80F300DF148
:105470000F0233460DF10E0103F0A0FE3620237912
:10548000644A00FB0353083332F8131021F0020181
:1054900022F81310237900FB0353083332F813105A
:1054A00041F0010122F813107B68002B45D02679CA
:1054B0004146304693F80090D3F804A0FFF770FE01
:1054C00020B1BAF1000F22D0534839E04FF0360C2A
:1054D0000CFB06564F49083631F8163023F460436A
:1054E00023F0200321F81630BAF1000F0FD0B9F1E4
:1054F000030FE9D87B6826685B68187806EB80069E
:10550000B9F1000F1FD1C6F81095C6F810953620D6
:105510002379404A00FB0353083332F8131021F07B
:105520001C0122F81310237900FB0353083332F8CF
:10553000131041EA890122F81310BB6863BB374896
:1055400004B0BDE8F087D6F8102522F00302C6F8B3
:105550001025226802EB8003D3F8102522F447328D
:1055600022F47C72C3F8102541F6F072D3F810656E
:1055700002EA081242EA09423243C3F810252379AD
:105580000CFB0353083331F8132042EA403242F057
:10559000200221F81320BAE74146D3E900972046BC
:1055A000FFF78AFDB9F1000FC9D06C232079194E9D
:1055B0004343F218F358994504D153689F4201D1EF
:1055C00000210CE06C2303FB00600DF10F01603043
:1055D000FFF700FC114B9842B2D19DF80F106C22DE
:1055E0002379534303EBC10346F8039023795343D4
:1055F000362203EBC10333445F60237902FB03537C
:10560000083336F8132042EA412242F4807226F829
:10561000132094E7480000200400AD0B0000AD0B00
:105620002DE9FF470546084617461E46FFF73AFD97
:105630008946044687B395F804804046FFF7B0FDDD
:1056400018B94046FFF7BEFD68BB362303FB084888
:10565000DFF8E4A008F108083AF8183013F01C0F3E
:1056600002D07B78012B1ED001238DF80F30002350
:105670007A1CCDE900734846BB1C0DF10F0103F005
:105680009DFD36222B7902FB034308333AF81320A1
:1056900042F003022AF81320002E4BD04946287905
:1056A000FFF77EFD18B9254804B0BDE8F08700215A
:1056B0004FF0360C30782B68820003EB8003C3F880
:1056C0001015C3F810152B791B490CFB0343083345
:1056D00031F8137027F4604727F0200721F8137082
:1056E00077783FB32B68B6781A44D2F810E5144B9C
:1056F0003F040EEA0303C2F8103541F6F07307F4D5
:10570000403703EA09133605D2F810E53B4306F4A7
:105710008016334343EA0E03C2F810352B790CFB95
:105720000344083431F8143043EA403343F0200393
:1057300021F814300348B7E7480000200400AD0BFF
:105740000FE0ECFF0000AD0B30B56C250479044B85
:1057500005FB0434A160017905FB0133DA6030BD3B
:105760004800002070B5067914463046FFF72AFD40
:1057700068B10846FFF796FC362303FB0600054B8D
:10578000083033F8103004485B0B237070BD0348B9
:10579000FCE700BF480000200000AD0B0400AD0B8B
:1057A0002DE9F041064607796C20194D00FB07589A
:1057B00098F868404CBB404621464622103003F022
:1057C000E9FF21463068D8F858608E4213D1002393
:1057D000C0F84431D0F84431C0F308300130FDF74F
:1057E0000BFC6C2303FB075501230A4885F868303E
:1057F0002B66BDE8F081CBB29B0003F58072442B91
:1058000004BF845083580131DFE70348F1E700BF4C
:10581000480000200000AD0B0C00AD0B6C2102799C
:10582000044B01FB023393F86800003818BF0120D5
:10583000704700BF480000206C235C22007913FBF6
:10584000002302481844FFF7E5BA00BF48000020D3
:105850006C235C22007913FB002302481844FFF7F5
:10586000B9BA00BF480000202DE9F341036817468C
:10587000D3F81423044692035CBF4FF40032C3F8FC
:10588000142306790D463046FFF79CFC08B33046DA
:10589000FFF786FC8046E0B93046FFF771FC05B2A1
:1058A0002168AD0005F5807241F802808A582168B0
:1058B0002944D1F8102542F00102C1F810252FB17A
:1058C0000122216802FA00F3C1F8143302B0BDE8E6
:1058D000F0812846FFF7E6FB362303FB06000F4B5B
:1058E000083033F81030C3F38203042B11D0052B9A
:1058F00011D001A80195FFF7C5FB019AC368D340F9
:1059000003F00103991C284602B0BDE8F04103F002
:105910009EBC0321F7E70221F5E700BF4800002005
:1059200001490248FFF760BC4800002000A00D506C
:1059300001490248FFF758BCB400002000C01050D5
:1059400070B5002367240126027A94FAA4F1B1FA13
:1059500081F1914203F1010518D100210C241201BB
:1059600002F1A04202F56222C2F82C150A4ADBB20B
:1059700004FB03230168D960416819610121007AA1
:105980001875936881400B43936070BD06FA01F16E
:105990002B4624EA0104D8E720010020074B027AB5
:1059A000D3F8101521F001010A43C3F8102502684D
:1059B000C3F8A4264268C3F8AC26704700200E50F6
:1059C000012303FA00F010F0670F0AD0064B5B6862
:1059D000DB4303F067030342044B054818BF184636
:1059E00070470448704700BF200100200000AD0B45
:1059F0000400AD0B0800AD0B002300222DE9F04898
:105A0000C0E90023114BD3F810359B071CD5EFF3E9
:105A10001181202383F31288BFF36F8F4FF0FF357E
:105A20006FF040440A4ED6E900BC5D4574EB0C07AC
:105A3000F9D3CCF31303C0E900B381F31188BFF3AA
:105A40006F8F0448BDE8F0880348FBE700200E5044
:105A500040270E500000AD0B0100AD0BF0B53F4CE0
:105A600085B02578002D75D13D4A01AB07CA83E882
:105A700007003C491846D1F8102522F00202C1F86F
:105A80001025FFF78BFF0723672202F0010129444D
:105A9000013BCDB24FEA5202F7D1052D5CD11A4637
:105AA00001272E48002567265FFA82FC96FAA6F1A8
:105AB0005FFA85FEE645B1FA81F145D30132052A48
:105AC000017500F10C00EDD10120002526499A084E
:105AD00000FA02F212F0670F1CBF5D505A580433EF
:105AE000302BF4D1E420FDF787FA1E4B1F49D3F881
:105AF000182703F5C07322F4403242F48032C3F811
:105B00009825D3F8902322F00202C3F8902340F6A0
:105B1000FF72C3F8A82100221A60A3F58070043335
:105B20008B420260F8D101250E4B114A1D66114BC4
:105B30005D201B68B3FBF2F358430F4B2B43984790
:105B40000E48257005B0F0BD07FA01F126EA0106FE
:105B50000135ABE70A48F5E70A48F3E720010020E2
:105B6000BCA3000000200E5000210E50B0210E50AA
:105B700040420F0044000020E0A300000000AD0BF5
:105B80000C00AD0B0100AD0B73B52A4C05466368E4
:105B90000E4603F0010304F1140101A80193FFF77D
:105BA00019F9254B98423DD100233370636823F0E7
:105BB00001036360A36843F00103A3601F4BD3F8A4
:105BC0001025960732D4D3F8102542F00202C3F80C
:105BD0001025C5B1D3F8482712F0010202BFD3F84F
:105BE000481741F00101C3F84817144BD3F8401788
:105BF000D3F844174C00F9D42AB9D3F8482722F037
:105C00000102C3F848270E4B0E4A1B68B3FBF2F3A0
:105C10000A4A03EB43135BB1D2F84017D2F844179A
:105C2000490001D402B070BD013BF4E70648F9E732
:105C30000648F7E7200100200000AD0B00200E50C1
:105C40004400002040420F000C00AD0B0700AD0BDC
:105C50002DE9F0410446007A1D46FFF7B1FE1A4BCC
:105C60001746984206469DF8188029D12046FFF72E
:105C700067FEEFF31180202383F31288BFF36F8F49
:105C8000227A124B9200134400221A60217AC5F343
:105C90001305090101F1A04101F562211B68C1F85A
:105CA0002075C1F8245580F31188BFF36F8FB8F1C8
:105CB000000F05D00123227A9340054AC2F824330D
:105CC0003046BDE8F08100BF0000AD0B00210E5052
:105CD00000200E50F7B5254A002053689268DB4338
:105CE00003F0670313401C46012607460CBB01273F
:105CF0001F4B1E4DD3F820630640287D07FA00F3A2
:105D000033420FD0E96869B10201D5F810C002F141
:105D1000A04202F56222D2F82435D2F82025CDF82F
:105D200000C088470134052C05F10C05E5D103B00E
:105D3000F0BD94FAA4F5B5FA85F5AA0002F58071D4
:105D4000920806FA02F213420BD001F1A04101F5CC
:105D50006221D1F800C0BCF1000F02D00F600968C9
:105D6000104306FA05F524EA0504BFE720010020E8
:105D700000200E5010B4CC7B8A6803682CB9D1E99E
:105D80000041C3F80046C3F80416C3F824252822AE
:105D900003795343054AD3582BB1006810BCC0F3B4
:105DA0000830FDF729B910BC704700BFC0050020BE
:105DB00070B5817B29BB02685F2A02F01F034FEA9E
:105DC000521420D8124E134D56F8242040F60C04DD
:105DD00002EB8302D2F880302B402343C2F880309C
:105DE00042685F2A02F01F034FEA52100BD856F8A0
:105DF000202002EB8302D2F880302B402343C2F8EC
:105E00008030012070BD203351F82330FFDE00BF09
:105E1000A8BE0000F0F0FCFF2DE9F041074690F825
:105E20000480282000FB08F0144E0C46351895F825
:105E30002210F1B9A96032506B6085F8251085F801
:105E400024106CB1A37B204685F82730FFF7B0FF04
:105E500088B1637B2146384685F82630FFF78AFFF4
:105E6000282303FB08660123054886F82230BDE895
:105E7000F0810448FBE70448F9E700BFC0050020B3
:105E80000000AD0B0C00AD0B0400AD0B0621036848
:105E90000279C3F800152821034B01FB02330222CB
:105EA00083F82220704700BFC0050020282110B5CC
:105EB000002402790B4B01FB02339C6001680A4A03
:105EC000C1F80823D1F8002222F0FF5222F4BC527C
:105ED000C1F800220122C1F8004583F8222083F88E
